{
  "contractName": "Lottery",
  "abi": [
    {
      "inputs": [],
      "stateMutability": "nonpayable",
      "type": "constructor"
    },
    {
      "anonymous": false,
      "inputs": [
        {
          "indexed": false,
          "internalType": "uint256",
          "name": "index",
          "type": "uint256"
        },
        {
          "indexed": false,
          "internalType": "address",
          "name": "bettor",
          "type": "address"
        },
        {
          "indexed": false,
          "internalType": "uint256",
          "name": "amount",
          "type": "uint256"
        },
        {
          "indexed": false,
          "internalType": "bytes",
          "name": "challenges",
          "type": "bytes"
        },
        {
          "indexed": false,
          "internalType": "uint256",
          "name": "answerBlockNumber",
          "type": "uint256"
        }
      ],
      "name": "BET",
      "type": "event"
    },
    {
      "inputs": [],
      "name": "owner",
      "outputs": [
        {
          "internalType": "address",
          "name": "",
          "type": "address"
        }
      ],
      "stateMutability": "view",
      "type": "function"
    },
    {
      "inputs": [],
      "name": "getPot",
      "outputs": [
        {
          "internalType": "uint256",
          "name": "pot",
          "type": "uint256"
        }
      ],
      "stateMutability": "view",
      "type": "function"
    },
    {
      "inputs": [
        {
          "internalType": "bytes",
          "name": "challenges",
          "type": "bytes"
        }
      ],
      "name": "bet",
      "outputs": [
        {
          "internalType": "bool",
          "name": "result",
          "type": "bool"
        }
      ],
      "stateMutability": "payable",
      "type": "function"
    },
    {
      "inputs": [],
      "name": "distribute",
      "outputs": [],
      "stateMutability": "nonpayable",
      "type": "function"
    },
    {
      "inputs": [
        {
          "internalType": "bytes",
          "name": "challenges",
          "type": "bytes"
        },
        {
          "internalType": "bytes32",
          "name": "answer",
          "type": "bytes32"
        }
      ],
      "name": "isMatch",
      "outputs": [
        {
          "internalType": "enum Lottery.BettingResult",
          "name": "",
          "type": "uint8"
        }
      ],
      "stateMutability": "pure",
      "type": "function"
    },
    {
      "inputs": [
        {
          "internalType": "uint256",
          "name": "index",
          "type": "uint256"
        }
      ],
      "name": "getBetInfo",
      "outputs": [
        {
          "internalType": "uint256",
          "name": "answerBlockNumber",
          "type": "uint256"
        },
        {
          "internalType": "address",
          "name": "bettor",
          "type": "address"
        },
        {
          "internalType": "bytes",
          "name": "challenges",
          "type": "bytes"
        }
      ],
      "stateMutability": "view",
      "type": "function"
    }
  ],
  "bytecode": "0x608060405234801561001057600080fd5b5033600360006101000a81548173ffffffffffffffffffffffffffffffffffffffff021916908373ffffffffffffffffffffffffffffffffffffffff160217905550611370806100616000396000f3fe6080604052600436106100555760003560e01c806327990a5a1461005a578063403c9fa814610097578063599eac8a146100c257806379141f80146100f25780638da5cb5b14610131578063e4fc6b6d1461015c575b600080fd5b34801561006657600080fd5b50610081600480360381019061007c9190610d49565b610173565b60405161008e9190610e1c565b60405180910390f35b3480156100a357600080fd5b506100ac610498565b6040516100b99190610e50565b60405180910390f35b6100dc60048036038101906100d79190610e6b565b6104a2565b6040516100e99190610ecf565b60405180910390f35b3480156100fe57600080fd5b5061011960048036038101906101149190610f16565b610597565b6040516101289392919061100c565b60405180910390f35b34801561013d57600080fd5b506101466106cd565b604051610153919061104a565b60405180910390f35b34801561016857600080fd5b506101716106f3565b005b6000808360008151811061018a57610189611065565b5b602001015160f81c60f81b90506000846000815181106101ad576101ac611065565b5b602001015160f81c60f81b90506000846000602081106101d0576101cf611065565b5b1a60f81b90506000856000602081106101ec576101eb611065565b5b1a60f81b90506004847effffffffffffffffffffffffffffffffffffffffffffffffffffffffffffff1916901c93506004847effffffffffffffffffffffffffffffffffffffffffffffffffffffffffffff1916901b93506004827effffffffffffffffffffffffffffffffffffffffffffffffffffffffffffff1916901c91506004827effffffffffffffffffffffffffffffffffffffffffffffffffffffffffffff1916901b91506004837effffffffffffffffffffffffffffffffffffffffffffffffffffffffffffff1916901b92506004837effffffffffffffffffffffffffffffffffffffffffffffffffffffffffffff1916901c92506004817effffffffffffffffffffffffffffffffffffffffffffffffffffffffffffff1916901b90506004817effffffffffffffffffffffffffffffffffffffffffffffffffffffffffffff1916901c9050837effffffffffffffffffffffffffffffffffffffffffffffffffffffffffffff1916827effffffffffffffffffffffffffffffffffffffffffffffffffffffffffffff19161480156103d05750827effffffffffffffffffffffffffffffffffffffffffffffffffffffffffffff1916817effffffffffffffffffffffffffffffffffffffffffffffffffffffffffffff1916145b156103e2576001945050505050610492565b837effffffffffffffffffffffffffffffffffffffffffffffffffffffffffffff1916827effffffffffffffffffffffffffffffffffffffffffffffffffffffffffffff191614806104775750827effffffffffffffffffffffffffffffffffffffffffffffffffffffffffffff1916827effffffffffffffffffffffffffffffffffffffffffffffffffffffffffffff1916145b15610489576002945050505050610492565b60009450505050505b92915050565b6000600454905090565b60006611c37937e0800034146104ed576040517f08c379a00000000000000000000000000000000000000000000000000000000081526004016104e4906110f1565b60405180910390fd5b6104f6826108d5565b610535576040517f08c379a000000000000000000000000000000000000000000000000000000000815260040161052c9061115d565b60405180910390fd5b7f2fd14896e96d250bb5049b83d0198fc7663c624bc855bd734f54a2d56cab236b600160005461056591906111ac565b33348560034361057591906111e0565b604051610586959493929190611236565b60405180910390a160019050919050565b6000806060600060026000868152602001908152602001600020604051806060016040529081600082015481526020016001820160009054906101000a900473ffffffffffffffffffffffffffffffffffffffff1673ffffffffffffffffffffffffffffffffffffffff1673ffffffffffffffffffffffffffffffffffffffff16815260200160028201805461062c906112bf565b80601f0160208091040260200160405190810160405280929190818152602001828054610658906112bf565b80156106a55780601f1061067a576101008083540402835291602001916106a5565b820191906000526020600020905b81548152906001019060200180831161068857829003601f168201915b5050505050815250509050806000015193508060200151925080604001519150509193909250565b600360009054906101000a900473ffffffffffffffffffffffffffffffffffffffff1681565b60006106fd610a9f565b600060015492505b6000548310156108d05760026000848152602001908152602001600020604051806060016040529081600082015481526020016001820160009054906101000a900473ffffffffffffffffffffffffffffffffffffffff1673ffffffffffffffffffffffffffffffffffffffff1673ffffffffffffffffffffffffffffffffffffffff16815260200160028201805461079d906112bf565b80601f01602080910402602001604051908101604052809291908181526020018280546107c9906112bf565b80156108165780601f106107eb57610100808354040283529160200191610816565b820191906000526020600020905b8154815290600101906020018083116107f957829003601f168201915b505050505081525050915061082e82600001516109dd565b90506000600281111561084457610843610da5565b5b81600281111561085757610856610da5565b5b50506001600281111561086d5761086c610da5565b5b8160028111156108805761087f610da5565b5b141561088b576108d0565b60028081111561089e5761089d610da5565b5b8160028111156108b1576108b0610da5565b5b50506108bc83610a3f565b5082806108c8906112f1565b935050610705565b505050565b60006108df610a9f565b33816020019073ffffffffffffffffffffffffffffffffffffffff16908173ffffffffffffffffffffffffffffffffffffffff168152505060034361092491906111e0565b8160000181815250508281604001819052508060026000805481526020019081526020016000206000820151816000015560208201518160010160006101000a81548173ffffffffffffffffffffffffffffffffffffffff021916908373ffffffffffffffffffffffffffffffffffffffff16021790555060408201518160020190805190602001906109b8929190610ad6565b509050506000808154809291906109ce906112f1565b91905055506001915050919050565b600081431180156109fa5750816101006109f791906111e0565b43105b15610a085760009050610a3a565b814311610a185760019050610a3a565b81610100610a2691906111e0565b4310610a355760029050610a3a565b600290505b919050565b6000600260008381526020019081526020016000206000808201600090556001820160006101000a81549073ffffffffffffffffffffffffffffffffffffffff0219169055600282016000610a949190610b5c565b505060019050919050565b604051806060016040528060008152602001600073ffffffffffffffffffffffffffffffffffffffff168152602001606081525090565b828054610ae2906112bf565b90600052602060002090601f016020900481019282610b045760008555610b4b565b82601f10610b1d57805160ff1916838001178555610b4b565b82800160010185558215610b4b579182015b82811115610b4a578251825591602001919060010190610b2f565b5b509050610b589190610b9c565b5090565b508054610b68906112bf565b6000825580601f10610b7a5750610b99565b601f016020900490600052602060002090810190610b989190610b9c565b5b50565b5b80821115610bb5576000816000905550600101610b9d565b5090565b6000604051905090565b600080fd5b600080fd5b600080fd5b600080fd5b6000601f19601f8301169050919050565b7f4e487b7100000000000000000000000000000000000000000000000000000000600052604160045260246000fd5b610c2082610bd7565b810181811067ffffffffffffffff82111715610c3f57610c3e610be8565b5b80604052505050565b6000610c52610bb9565b9050610c5e8282610c17565b919050565b600067ffffffffffffffff821115610c7e57610c7d610be8565b5b610c8782610bd7565b9050602081019050919050565b82818337600083830152505050565b6000610cb6610cb184610c63565b610c48565b905082815260208101848484011115610cd257610cd1610bd2565b5b610cdd848285610c94565b509392505050565b600082601f830112610cfa57610cf9610bcd565b5b8135610d0a848260208601610ca3565b91505092915050565b6000819050919050565b610d2681610d13565b8114610d3157600080fd5b50565b600081359050610d4381610d1d565b92915050565b60008060408385031215610d6057610d5f610bc3565b5b600083013567ffffffffffffffff811115610d7e57610d7d610bc8565b5b610d8a85828601610ce5565b9250506020610d9b85828601610d34565b9150509250929050565b7f4e487b7100000000000000000000000000000000000000000000000000000000600052602160045260246000fd5b60038110610de557610de4610da5565b5b50565b6000819050610df682610dd4565b919050565b6000610e0682610de8565b9050919050565b610e1681610dfb565b82525050565b6000602082019050610e316000830184610e0d565b92915050565b6000819050919050565b610e4a81610e37565b82525050565b6000602082019050610e656000830184610e41565b92915050565b600060208284031215610e8157610e80610bc3565b5b600082013567ffffffffffffffff811115610e9f57610e9e610bc8565b5b610eab84828501610ce5565b91505092915050565b60008115159050919050565b610ec981610eb4565b82525050565b6000602082019050610ee46000830184610ec0565b92915050565b610ef381610e37565b8114610efe57600080fd5b50565b600081359050610f1081610eea565b92915050565b600060208284031215610f2c57610f2b610bc3565b5b6000610f3a84828501610f01565b91505092915050565b600073ffffffffffffffffffffffffffffffffffffffff82169050919050565b6000610f6e82610f43565b9050919050565b610f7e81610f63565b82525050565b600081519050919050565b600082825260208201905092915050565b60005b83811015610fbe578082015181840152602081019050610fa3565b83811115610fcd576000848401525b50505050565b6000610fde82610f84565b610fe88185610f8f565b9350610ff8818560208601610fa0565b61100181610bd7565b840191505092915050565b60006060820190506110216000830186610e41565b61102e6020830185610f75565b81810360408301526110408184610fd3565b9050949350505050565b600060208201905061105f6000830184610f75565b92915050565b7f4e487b7100000000000000000000000000000000000000000000000000000000600052603260045260246000fd5b600082825260208201905092915050565b7f4e6f742065786163742045544800000000000000000000000000000000000000600082015250565b60006110db600d83611094565b91506110e6826110a5565b602082019050919050565b6000602082019050818103600083015261110a816110ce565b9050919050565b7f4661696c20746f20707573682042657420496e666f0000000000000000000000600082015250565b6000611147601583611094565b915061115282611111565b602082019050919050565b600060208201905081810360008301526111768161113a565b9050919050565b7f4e487b7100000000000000000000000000000000000000000000000000000000600052601160045260246000fd5b60006111b782610e37565b91506111c283610e37565b9250828210156111d5576111d461117d565b5b828203905092915050565b60006111eb82610e37565b91506111f683610e37565b9250827fffffffffffffffffffffffffffffffffffffffffffffffffffffffffffffffff0382111561122b5761122a61117d565b5b828201905092915050565b600060a08201905061124b6000830188610e41565b6112586020830187610f75565b6112656040830186610e41565b81810360608301526112778185610fd3565b90506112866080830184610e41565b9695505050505050565b7f4e487b7100000000000000000000000000000000000000000000000000000000600052602260045260246000fd5b600060028204905060018216806112d757607f821691505b602082108114156112eb576112ea611290565b5b50919050565b60006112fc82610e37565b91507fffffffffffffffffffffffffffffffffffffffffffffffffffffffffffffffff82141561132f5761132e61117d565b5b60018201905091905056fea26469706673582212208e343aa6935c0f2c9b16aa13833a13181881e7799bee22a70d7a689a152766ca64736f6c634300080a0033",
  "immutableReferences": {},
  "source": "// SPDX-License-Identifier: MIT\r\npragma solidity >=0.4.22 <0.9.0;\r\n\r\ncontract Lottery {\r\n    struct BetInfo {\r\n        uint256 answerBlockNumber;\r\n        address payable bettor;\r\n        bytes challenges; // 0xab\r\n    }\r\n\r\n    //Lottery   queue\r\n    uint256 private _tail;\r\n    uint256 private _head;\r\n    mapping (uint256 => BetInfo) private _bets;\r\n    \r\n    address public owner;\r\n\r\n    uint256 constant internal BLOCK_LIMIT = 256;\r\n    uint256 constant internal BET_BLOCK_INTERVAL = 3;\r\n    uint256 constant internal BET_AMOUNT = 5 * 10 ** 15;\r\n    uint256 private _pot;\r\n\r\n    enum BlockStatus {Checkable, NotRevealed, BlockLimitPassed}\r\n    enum BettingResult {Fail, Win, Draw}\r\n\r\n    event BET(uint256 index, address bettor, uint256 amount, bytes challenges, uint256 answerBlockNumber);\r\n    constructor() {\r\n        owner = msg.sender;\r\n    }\r\n\r\n    function getPot() public view returns (uint256 pot) {\r\n        return _pot;\r\n    }\r\n\r\n    // Bet\r\n    /**\r\n    @dev  .  0.005 ETH  ,  1 byte  .\r\n         distribute  .\r\n    @param challenges   1 byte \r\n    @return result ->     bool \r\n     */\r\n    function bet(bytes memory challenges) public payable returns (bool result) {\r\n        // check the proper ether sent\r\n        // msg.value   eth    .\r\n        require(msg.value == BET_AMOUNT, \"Not exact ETH\");\r\n        \r\n        // push bet to the queue\r\n        require(pushBet(challenges), \"Fail to push Bet Info\");\r\n        // emit event\r\n        emit BET(_tail - 1, msg.sender, msg.value, challenges, block.number + BET_BLOCK_INTERVAL);\r\n        return true;\r\n    }\r\n        // save the bet to the queue\r\n\r\n    // Distribute\r\n    //   + 3   pot   \r\n    // distribute   betting  .\r\n    function distribute() public {\r\n        // head 3 4 5 6 7 8 9 10 .. 259 tail ( 256 block  .)\r\n        uint256 cur;\r\n        BetInfo memory b;\r\n        BlockStatus currentBlockStatus;\r\n\r\n        //      \r\n        // 1.   256    \r\n        // 2. +3       \r\n        for (cur = _head; cur < _tail; cur++) {\r\n            b = _bets[cur];\r\n            currentBlockStatus = getBlockStatus(b.answerBlockNumber);\r\n            // Cheackable : block.number > AnswerBlockNumber && block.number < BLOCK_LIMIT + AnswerBlockNumber => 1\r\n            \r\n            if (currentBlockStatus == BlockStatus.Checkable) {\r\n                // check the answer\r\n                // if win, bettor gets pot\r\n\r\n                // if fail, bettor's money goes pot\r\n\r\n                // if draw, refund bettor's money\r\n            }\r\n            // Not Revealed : block.number <= AnswerBlockNumber => 2\r\n            //  block block hash     <=   .\r\n            if (currentBlockStatus == BlockStatus.NotRevealed) {\r\n                break;\r\n            }\r\n            // Block Limit Passed : block.number >= BLOCK_LIMIT + AnswerBlockNumber => 3\r\n            if (currentBlockStatus == BlockStatus.BlockLimitPassed) {\r\n                // refund\r\n                // emit refund\r\n            }\r\n            popBet(cur);\r\n        }\r\n    }\r\n\r\n    /**\r\n    @dev    .\r\n    @param challenges  \r\n    @param answer  \r\n    @return  \r\n     */\r\n    function isMatch(bytes memory challenges, bytes32 answer) public pure returns (BettingResult) {\r\n        // challenges 0xab\r\n        // answer 0xab......ff 32 bytes\r\n        bytes1 c1 = challenges[0];\r\n        bytes1 c2 = challenges[0];\r\n        bytes1 a1 = answer[0];\r\n        bytes1 a2 = answer[0];\r\n\r\n        // Get first number\r\n        c1 = c1 >> 4; // 0xab -> 0x0a\r\n        c1 = c1 << 4; // 0x0a -> 0xa0\r\n\r\n        a1 = a1 >> 4;\r\n        a1 = a1 << 4;\r\n\r\n        // Get second number\r\n        c2 = c2 << 4; // 0xab -> 0xb0\r\n        c2 = c2 >> 4; // 0xb0 -> 0x0b\r\n\r\n        a2 = a2 << 4;\r\n        a2 = a2 >> 4;\r\n\r\n        if (a1 == c1 && a2 == c2) {\r\n            return BettingResult.Win;\r\n        }\r\n        if (a1 == c1 || a1 == c2) {\r\n            return BettingResult.Draw;\r\n        }\r\n        return BettingResult.Fail;\r\n    }\r\n\r\n    function getBlockStatus(uint256 answerBlockNumber) internal view returns (BlockStatus) {\r\n        if (block.number > answerBlockNumber && block.number < BLOCK_LIMIT + answerBlockNumber) {\r\n            return BlockStatus.Checkable;\r\n        }\r\n        if (block.number <= answerBlockNumber) {\r\n            return BlockStatus.NotRevealed;\r\n        }\r\n        if (block.number >= BLOCK_LIMIT + answerBlockNumber) {\r\n            return BlockStatus.BlockLimitPassed;\r\n        }\r\n        return BlockStatus.BlockLimitPassed;\r\n    }\r\n\r\n    function getBetInfo(uint256 index) public view returns (uint256 answerBlockNumber, address bettor, bytes memory challenges) {\r\n        BetInfo memory b = _bets[index];\r\n        answerBlockNumber = b.answerBlockNumber;\r\n        bettor = b.bettor;\r\n        challenges = b.challenges;\r\n    }\r\n\r\n    //betting  _bets queue .\r\n    function pushBet(bytes memory challenges) internal returns (bool) {\r\n        BetInfo memory b;\r\n        b.bettor = payable(msg.sender); //20bytes\r\n        b.answerBlockNumber = block.number + BET_BLOCK_INTERVAL; //32bytes\r\n        b.challenges = challenges; // byte\r\n\r\n        _bets[_tail] = b;\r\n        _tail++; // 32byte  \r\n        return true;\r\n    }\r\n\r\n    function popBet(uint256 index) internal returns (bool) {\r\n        // map  delete   gas  .\r\n        delete _bets[index];\r\n        return true;\r\n    }\r\n}",
  "sourcePath": "C:\\Users\\JUNYUB\\Desktop\\\\dapp\\LotteryDapp\\contracts\\Lottery.sol",
  "compiler": {
    "name": "solc",
    "version": "0.8.10+commit.fc410830.Emscripten.clang"
  },
  "schemaVersion": "3.4.3",
  "updatedAt": "2021-12-10T12:17:30.813Z",
  "devdoc": {
    "kind": "dev",
    "methods": {
      "bet(bytes)": {
        "details": " .  0.005 ETH  ,  1 byte  .      distribute  .",
        "params": {
          "challenges": "  1 byte "
        },
        "returns": {
          "result": "->     bool "
        }
      },
      "isMatch(bytes,bytes32)": {
        "details": "   .",
        "params": {
          "answer": " ",
          "challenges": " "
        },
        "returns": {
          "_0": " "
        }
      }
    },
    "version": 1
  },
  "userdoc": {
    "kind": "user",
    "methods": {},
    "version": 1
  }
}