{
  "contractName": "Lottery",
  "abi": [
    {
      "inputs": [],
      "stateMutability": "nonpayable",
      "type": "constructor"
    },
    {
      "anonymous": false,
      "inputs": [
        {
          "indexed": false,
          "internalType": "uint256",
          "name": "index",
          "type": "uint256"
        },
        {
          "indexed": false,
          "internalType": "address",
          "name": "bettor",
          "type": "address"
        },
        {
          "indexed": false,
          "internalType": "uint256",
          "name": "amount",
          "type": "uint256"
        },
        {
          "indexed": false,
          "internalType": "bytes",
          "name": "challenges",
          "type": "bytes"
        },
        {
          "indexed": false,
          "internalType": "uint256",
          "name": "answerBlockNumber",
          "type": "uint256"
        }
      ],
      "name": "BET",
      "type": "event"
    },
    {
      "anonymous": false,
      "inputs": [
        {
          "indexed": false,
          "internalType": "uint256",
          "name": "index",
          "type": "uint256"
        },
        {
          "indexed": false,
          "internalType": "address",
          "name": "bettor",
          "type": "address"
        },
        {
          "indexed": false,
          "internalType": "uint256",
          "name": "amount",
          "type": "uint256"
        },
        {
          "indexed": false,
          "internalType": "bytes",
          "name": "challenges",
          "type": "bytes"
        },
        {
          "indexed": false,
          "internalType": "bytes32",
          "name": "answer",
          "type": "bytes32"
        },
        {
          "indexed": false,
          "internalType": "uint256",
          "name": "answerBlockNumber",
          "type": "uint256"
        }
      ],
      "name": "DRAW",
      "type": "event"
    },
    {
      "anonymous": false,
      "inputs": [
        {
          "indexed": false,
          "internalType": "uint256",
          "name": "index",
          "type": "uint256"
        },
        {
          "indexed": false,
          "internalType": "address",
          "name": "bettor",
          "type": "address"
        },
        {
          "indexed": false,
          "internalType": "uint256",
          "name": "amount",
          "type": "uint256"
        },
        {
          "indexed": false,
          "internalType": "bytes",
          "name": "challenges",
          "type": "bytes"
        },
        {
          "indexed": false,
          "internalType": "bytes32",
          "name": "answer",
          "type": "bytes32"
        },
        {
          "indexed": false,
          "internalType": "uint256",
          "name": "answerBlockNumber",
          "type": "uint256"
        }
      ],
      "name": "FAIL",
      "type": "event"
    },
    {
      "anonymous": false,
      "inputs": [
        {
          "indexed": false,
          "internalType": "uint256",
          "name": "index",
          "type": "uint256"
        },
        {
          "indexed": false,
          "internalType": "address",
          "name": "bettor",
          "type": "address"
        },
        {
          "indexed": false,
          "internalType": "uint256",
          "name": "amount",
          "type": "uint256"
        },
        {
          "indexed": false,
          "internalType": "bytes",
          "name": "challenges",
          "type": "bytes"
        },
        {
          "indexed": false,
          "internalType": "uint256",
          "name": "answerBlockNumber",
          "type": "uint256"
        }
      ],
      "name": "REFUND",
      "type": "event"
    },
    {
      "anonymous": false,
      "inputs": [
        {
          "indexed": false,
          "internalType": "uint256",
          "name": "index",
          "type": "uint256"
        },
        {
          "indexed": false,
          "internalType": "address",
          "name": "bettor",
          "type": "address"
        },
        {
          "indexed": false,
          "internalType": "uint256",
          "name": "amount",
          "type": "uint256"
        },
        {
          "indexed": false,
          "internalType": "bytes",
          "name": "challenges",
          "type": "bytes"
        },
        {
          "indexed": false,
          "internalType": "bytes32",
          "name": "answer",
          "type": "bytes32"
        },
        {
          "indexed": false,
          "internalType": "uint256",
          "name": "answerBlockNumber",
          "type": "uint256"
        }
      ],
      "name": "WIN",
      "type": "event"
    },
    {
      "inputs": [],
      "name": "answerforTest",
      "outputs": [
        {
          "internalType": "bytes32",
          "name": "",
          "type": "bytes32"
        }
      ],
      "stateMutability": "view",
      "type": "function"
    },
    {
      "inputs": [],
      "name": "owner",
      "outputs": [
        {
          "internalType": "address payable",
          "name": "",
          "type": "address"
        }
      ],
      "stateMutability": "view",
      "type": "function"
    },
    {
      "inputs": [],
      "name": "getPot",
      "outputs": [
        {
          "internalType": "uint256",
          "name": "pot",
          "type": "uint256"
        }
      ],
      "stateMutability": "view",
      "type": "function"
    },
    {
      "inputs": [
        {
          "internalType": "bytes",
          "name": "challenges",
          "type": "bytes"
        }
      ],
      "name": "bet",
      "outputs": [
        {
          "internalType": "bool",
          "name": "result",
          "type": "bool"
        }
      ],
      "stateMutability": "payable",
      "type": "function"
    },
    {
      "inputs": [],
      "name": "distribute",
      "outputs": [],
      "stateMutability": "nonpayable",
      "type": "function"
    },
    {
      "inputs": [
        {
          "internalType": "bytes32",
          "name": "answer",
          "type": "bytes32"
        }
      ],
      "name": "setAnswerForTest",
      "outputs": [
        {
          "internalType": "bool",
          "name": "result",
          "type": "bool"
        }
      ],
      "stateMutability": "nonpayable",
      "type": "function"
    },
    {
      "inputs": [
        {
          "internalType": "bytes",
          "name": "challenges",
          "type": "bytes"
        },
        {
          "internalType": "bytes32",
          "name": "answer",
          "type": "bytes32"
        }
      ],
      "name": "isMatch",
      "outputs": [
        {
          "internalType": "enum Lottery.BettingResult",
          "name": "",
          "type": "uint8"
        }
      ],
      "stateMutability": "pure",
      "type": "function"
    },
    {
      "inputs": [
        {
          "internalType": "uint256",
          "name": "index",
          "type": "uint256"
        }
      ],
      "name": "getBetInfo",
      "outputs": [
        {
          "internalType": "uint256",
          "name": "answerBlockNumber",
          "type": "uint256"
        },
        {
          "internalType": "address",
          "name": "bettor",
          "type": "address"
        },
        {
          "internalType": "bytes",
          "name": "challenges",
          "type": "bytes"
        }
      ],
      "stateMutability": "view",
      "type": "function"
    }
  ],
  "bytecode": "0x60806040526000600360146101000a81548160ff02191690831515021790555034801561002b57600080fd5b5033600360006101000a81548173ffffffffffffffffffffffffffffffffffffffff021916908373ffffffffffffffffffffffffffffffffffffffff160217905550611b6d8061007c6000396000f3fe60806040526004361061007b5760003560e01c806379141f801161004e57806379141f80146101555780638da5cb5b1461019457806397555405146101bf578063e4fc6b6d146101ea5761007b565b806327990a5a14610080578063403c9fa8146100bd578063599eac8a146100e85780637009fa3614610118575b600080fd5b34801561008c57600080fd5b506100a760048036038101906100a2919061122b565b610201565b6040516100b491906112fe565b60405180910390f35b3480156100c957600080fd5b506100d2610526565b6040516100df9190611332565b60405180910390f35b61010260048036038101906100fd919061134d565b610530565b60405161010f91906113b1565b60405180910390f35b34801561012457600080fd5b5061013f600480360381019061013a91906113cc565b610625565b60405161014c91906113b1565b60405180910390f35b34801561016157600080fd5b5061017c60048036038101906101779190611425565b6106c7565b60405161018b9392919061151b565b60405180910390f35b3480156101a057600080fd5b506101a96107fd565b6040516101b6919061157a565b60405180910390f35b3480156101cb57600080fd5b506101d4610823565b6040516101e191906115a4565b60405180910390f35b3480156101f657600080fd5b506101ff610829565b005b60008083600081518110610218576102176115bf565b5b602001015160f81c60f81b905060008460008151811061023b5761023a6115bf565b5b602001015160f81c60f81b905060008460006020811061025e5761025d6115bf565b5b1a60f81b905060008560006020811061027a576102796115bf565b5b1a60f81b90506004847effffffffffffffffffffffffffffffffffffffffffffffffffffffffffffff1916901c93506004847effffffffffffffffffffffffffffffffffffffffffffffffffffffffffffff1916901b93506004827effffffffffffffffffffffffffffffffffffffffffffffffffffffffffffff1916901c91506004827effffffffffffffffffffffffffffffffffffffffffffffffffffffffffffff1916901b91506004837effffffffffffffffffffffffffffffffffffffffffffffffffffffffffffff1916901b92506004837effffffffffffffffffffffffffffffffffffffffffffffffffffffffffffff1916901c92506004817effffffffffffffffffffffffffffffffffffffffffffffffffffffffffffff1916901b90506004817effffffffffffffffffffffffffffffffffffffffffffffffffffffffffffff1916901c9050837effffffffffffffffffffffffffffffffffffffffffffffffffffffffffffff1916827effffffffffffffffffffffffffffffffffffffffffffffffffffffffffffff191614801561045e5750827effffffffffffffffffffffffffffffffffffffffffffffffffffffffffffff1916817effffffffffffffffffffffffffffffffffffffffffffffffffffffffffffff1916145b15610470576001945050505050610520565b837effffffffffffffffffffffffffffffffffffffffffffffffffffffffffffff1916827effffffffffffffffffffffffffffffffffffffffffffffffffffffffffffff191614806105055750827effffffffffffffffffffffffffffffffffffffffffffffffffffffffffffff1916827effffffffffffffffffffffffffffffffffffffffffffffffffffffffffffff1916145b15610517576002945050505050610520565b60009450505050505b92915050565b6000600554905090565b60006611c37937e08000341461057b576040517f08c379a00000000000000000000000000000000000000000000000000000000081526004016105729061164b565b60405180910390fd5b61058482610cbd565b6105c3576040517f08c379a00000000000000000000000000000000000000000000000000000000081526004016105ba906116b7565b60405180910390fd5b7f2fd14896e96d250bb5049b83d0198fc7663c624bc855bd734f54a2d56cab236b60016000546105f39190611706565b333485600343610603919061173a565b604051610614959493929190611790565b60405180910390a160019050919050565b6000600360009054906101000a900473ffffffffffffffffffffffffffffffffffffffff1673ffffffffffffffffffffffffffffffffffffffff163373ffffffffffffffffffffffffffffffffffffffff16146106b7576040517f08c379a00000000000000000000000000000000000000000000000000000000081526004016106ae9061185c565b60405180910390fd5b8160048190555060019050919050565b6000806060600060026000868152602001908152602001600020604051806060016040529081600082015481526020016001820160009054906101000a900473ffffffffffffffffffffffffffffffffffffffff1673ffffffffffffffffffffffffffffffffffffffff1673ffffffffffffffffffffffffffffffffffffffff16815260200160028201805461075c906118ab565b80601f0160208091040260200160405190810160405280929190818152602001828054610788906118ab565b80156107d55780601f106107aa576101008083540402835291602001916107d5565b820191906000526020600020905b8154815290600101906020018083116107b857829003601f168201915b5050505050815250509050806000015193508060200151925080604001519150509193909250565b600360009054906101000a900473ffffffffffffffffffffffffffffffffffffffff1681565b60045481565b600080610834610f81565b60008060015494505b600054851015610caf5760026000868152602001908152602001600020604051806060016040529081600082015481526020016001820160009054906101000a900473ffffffffffffffffffffffffffffffffffffffff1673ffffffffffffffffffffffffffffffffffffffff1673ffffffffffffffffffffffffffffffffffffffff1681526020016002820180546108d5906118ab565b80601f0160208091040260200160405190810160405280929190818152602001828054610901906118ab565b801561094e5780601f106109235761010080835404028352916020019161094e565b820191906000526020600020905b81548152906001019060200180831161093157829003601f168201915b50505050508152505092506109668360000151610dc5565b91506000600281111561097c5761097b611287565b5b82600281111561098f5761098e611287565b5b1415610bd15760006109a48460000151610e27565b90506109b4846040015182610201565b9150600160028111156109ca576109c9611287565b5b8260028111156109dd576109dc611287565b5b1415610a7457610a0584602001516611c37937e08000600554610a00919061173a565b610e4f565b945060006005819055507f368b17c1406f866364214eb32f0c5c884ff5daac47414568e029aadbe171362a86856020015187876040015185600060208110610a5057610a4f6115bf565b5b1a60f81b8960000151604051610a6b96959493929190611989565b60405180910390a15b60006002811115610a8857610a87611287565b5b826002811115610a9b57610a9a611287565b5b1415610b27576611c37937e0800060056000828254610aba919061173a565b925050819055507f3644441f49d1fa6900c287f1b1f9bb0470eb888cac5301f3e81ed36406ae9d368685602001516000876040015185600060208110610b0357610b026115bf565b5b1a60f81b8960000151604051610b1e96959493929190611a2c565b60405180910390a15b600280811115610b3a57610b39611287565b5b826002811115610b4d57610b4c611287565b5b1415610bcf57610b6884602001516611c37937e08000610e4f565b94507f5f9b065faf143f8ba17d054faeaccb646009c994b6f120bdd65393a2ebdbc31a86856020015187876040015185600060208110610bab57610baa6115bf565b5b1a60f81b8960000151604051610bc696959493929190611989565b60405180910390a15b505b60016002811115610be557610be4611287565b5b826002811115610bf857610bf7611287565b5b1415610c0357610caf565b600280811115610c1657610c15611287565b5b826002811115610c2957610c28611287565b5b1415610c9257610c4483602001516611c37937e08000610e4f565b93507fb9e770a7cb81e48633298e345872ba6588ee43da5e788b452485e2b4ac8f13248584602001518686604001518760000151604051610c89959493929190611a94565b60405180910390a15b610c9b85610f21565b508480610ca790611aee565b95505061083d565b846001819055505050505050565b6000610cc7610f81565b33816020019073ffffffffffffffffffffffffffffffffffffffff16908173ffffffffffffffffffffffffffffffffffffffff1681525050600343610d0c919061173a565b8160000181815250508281604001819052508060026000805481526020019081526020016000206000820151816000015560208201518160010160006101000a81548173ffffffffffffffffffffffffffffffffffffffff021916908373ffffffffffffffffffffffffffffffffffffffff1602179055506040820151816002019080519060200190610da0929190610fb8565b50905050600080815480929190610db690611aee565b91905055506001915050919050565b60008143118015610de2575081610100610ddf919061173a565b43105b15610df05760009050610e22565b814311610e005760019050610e22565b81610100610e0e919061173a565b4310610e1d5760029050610e22565b600290505b919050565b6000600360149054906101000a900460ff16610e4557600454610e48565b81405b9050919050565b6000806000905060008184610e649190611706565b90508473ffffffffffffffffffffffffffffffffffffffff166108fc829081150290604051600060405180830381858888f19350505050158015610eac573d6000803e3d6000fd5b50600360009054906101000a900473ffffffffffffffffffffffffffffffffffffffff1673ffffffffffffffffffffffffffffffffffffffff166108fc839081150290604051600060405180830381858888f19350505050158015610f15573d6000803e3d6000fd5b50809250505092915050565b6000600260008381526020019081526020016000206000808201600090556001820160006101000a81549073ffffffffffffffffffffffffffffffffffffffff0219169055600282016000610f76919061103e565b505060019050919050565b604051806060016040528060008152602001600073ffffffffffffffffffffffffffffffffffffffff168152602001606081525090565b828054610fc4906118ab565b90600052602060002090601f016020900481019282610fe6576000855561102d565b82601f10610fff57805160ff191683800117855561102d565b8280016001018555821561102d579182015b8281111561102c578251825591602001919060010190611011565b5b50905061103a919061107e565b5090565b50805461104a906118ab565b6000825580601f1061105c575061107b565b601f01602090049060005260206000209081019061107a919061107e565b5b50565b5b8082111561109757600081600090555060010161107f565b5090565b6000604051905090565b600080fd5b600080fd5b600080fd5b600080fd5b6000601f19601f8301169050919050565b7f4e487b7100000000000000000000000000000000000000000000000000000000600052604160045260246000fd5b611102826110b9565b810181811067ffffffffffffffff82111715611121576111206110ca565b5b80604052505050565b600061113461109b565b905061114082826110f9565b919050565b600067ffffffffffffffff8211156111605761115f6110ca565b5b611169826110b9565b9050602081019050919050565b82818337600083830152505050565b600061119861119384611145565b61112a565b9050828152602081018484840111156111b4576111b36110b4565b5b6111bf848285611176565b509392505050565b600082601f8301126111dc576111db6110af565b5b81356111ec848260208601611185565b91505092915050565b6000819050919050565b611208816111f5565b811461121357600080fd5b50565b600081359050611225816111ff565b92915050565b60008060408385031215611242576112416110a5565b5b600083013567ffffffffffffffff8111156112605761125f6110aa565b5b61126c858286016111c7565b925050602061127d85828601611216565b9150509250929050565b7f4e487b7100000000000000000000000000000000000000000000000000000000600052602160045260246000fd5b600381106112c7576112c6611287565b5b50565b60008190506112d8826112b6565b919050565b60006112e8826112ca565b9050919050565b6112f8816112dd565b82525050565b600060208201905061131360008301846112ef565b92915050565b6000819050919050565b61132c81611319565b82525050565b60006020820190506113476000830184611323565b92915050565b600060208284031215611363576113626110a5565b5b600082013567ffffffffffffffff811115611381576113806110aa565b5b61138d848285016111c7565b91505092915050565b60008115159050919050565b6113ab81611396565b82525050565b60006020820190506113c660008301846113a2565b92915050565b6000602082840312156113e2576113e16110a5565b5b60006113f084828501611216565b91505092915050565b61140281611319565b811461140d57600080fd5b50565b60008135905061141f816113f9565b92915050565b60006020828403121561143b5761143a6110a5565b5b600061144984828501611410565b91505092915050565b600073ffffffffffffffffffffffffffffffffffffffff82169050919050565b600061147d82611452565b9050919050565b61148d81611472565b82525050565b600081519050919050565b600082825260208201905092915050565b60005b838110156114cd5780820151818401526020810190506114b2565b838111156114dc576000848401525b50505050565b60006114ed82611493565b6114f7818561149e565b93506115078185602086016114af565b611510816110b9565b840191505092915050565b60006060820190506115306000830186611323565b61153d6020830185611484565b818103604083015261154f81846114e2565b9050949350505050565b600061156482611452565b9050919050565b61157481611559565b82525050565b600060208201905061158f600083018461156b565b92915050565b61159e816111f5565b82525050565b60006020820190506115b96000830184611595565b92915050565b7f4e487b7100000000000000000000000000000000000000000000000000000000600052603260045260246000fd5b600082825260208201905092915050565b7f4e6f742065786163742045544800000000000000000000000000000000000000600082015250565b6000611635600d836115ee565b9150611640826115ff565b602082019050919050565b6000602082019050818103600083015261166481611628565b9050919050565b7f4661696c20746f20707573682042657420496e666f0000000000000000000000600082015250565b60006116a16015836115ee565b91506116ac8261166b565b602082019050919050565b600060208201905081810360008301526116d081611694565b9050919050565b7f4e487b7100000000000000000000000000000000000000000000000000000000600052601160045260246000fd5b600061171182611319565b915061171c83611319565b92508282101561172f5761172e6116d7565b5b828203905092915050565b600061174582611319565b915061175083611319565b9250827fffffffffffffffffffffffffffffffffffffffffffffffffffffffffffffffff03821115611785576117846116d7565b5b828201905092915050565b600060a0820190506117a56000830188611323565b6117b26020830187611484565b6117bf6040830186611323565b81810360608301526117d181856114e2565b90506117e06080830184611323565b9695505050505050565b7f4f6e6c79206f776e65722063616e207365742074686520616e7377657220666f60008201527f722074657374206d6f6465000000000000000000000000000000000000000000602082015250565b6000611846602b836115ee565b9150611851826117ea565b604082019050919050565b6000602082019050818103600083015261187581611839565b9050919050565b7f4e487b7100000000000000000000000000000000000000000000000000000000600052602260045260246000fd5b600060028204905060018216806118c357607f821691505b602082108114156118d7576118d661187c565b5b50919050565b6000819050919050565b60006119026118fd6118f884611452565b6118dd565b611452565b9050919050565b6000611914826118e7565b9050919050565b600061192682611909565b9050919050565b6119368161191b565b82525050565b60007fff0000000000000000000000000000000000000000000000000000000000000082169050919050565b60006119738261193c565b9050919050565b61198381611968565b82525050565b600060c08201905061199e6000830189611323565b6119ab602083018861192d565b6119b86040830187611323565b81810360608301526119ca81866114e2565b90506119d9608083018561197a565b6119e660a0830184611323565b979650505050505050565b6000819050919050565b6000611a16611a11611a0c846119f1565b6118dd565b611319565b9050919050565b611a26816119fb565b82525050565b600060c082019050611a416000830189611323565b611a4e602083018861192d565b611a5b6040830187611a1d565b8181036060830152611a6d81866114e2565b9050611a7c608083018561197a565b611a8960a0830184611323565b979650505050505050565b600060a082019050611aa96000830188611323565b611ab6602083018761192d565b611ac36040830186611323565b8181036060830152611ad581856114e2565b9050611ae46080830184611323565b9695505050505050565b6000611af982611319565b91507fffffffffffffffffffffffffffffffffffffffffffffffffffffffffffffffff821415611b2c57611b2b6116d7565b5b60018201905091905056fea264697066735822122068c2d2c163aeb087fde97c114489ad8423d2a76051461a9623485be6033cbff064736f6c634300080a0033",
  "immutableReferences": {},
  "source": "// SPDX-License-Identifier: MIT\r\npragma solidity >=0.4.22 <0.9.0;\r\n\r\ncontract Lottery {\r\n    struct BetInfo {\r\n        uint256 answerBlockNumber;\r\n        address payable bettor;\r\n        bytes challenges; // 0xab\r\n    }\r\n\r\n    //Lottery   queue\r\n    uint256 private _tail;\r\n    uint256 private _head;\r\n    mapping (uint256 => BetInfo) private _bets;\r\n    \r\n    address payable public owner;\r\n\r\n    bool private mode = false; // false : test mode (use test answer), true : real mode (use block hash) \r\n    bytes32 public answerforTest;\r\n    uint256 constant internal BLOCK_LIMIT = 256;\r\n    uint256 constant internal BET_BLOCK_INTERVAL = 3;\r\n    uint256 constant internal BET_AMOUNT = 5 * 10 ** 15;\r\n    uint256 private _pot;\r\n\r\n    enum BlockStatus {Checkable, NotRevealed, BlockLimitPassed}\r\n    enum BettingResult {Fail, Win, Draw}\r\n\r\n    event BET(uint256 index, address bettor, uint256 amount, bytes challenges, uint256 answerBlockNumber);\r\n    event WIN(uint256 index, address bettor, uint256 amount, bytes challenges, bytes32 answer, uint256 answerBlockNumber);\r\n    event FAIL(uint256 index, address bettor, uint256 amount, bytes challenges, bytes32 answer, uint256 answerBlockNumber);\r\n    event DRAW(uint256 index, address bettor, uint256 amount, bytes challenges, bytes32 answer, uint256 answerBlockNumber);\r\n    event REFUND(uint256 index, address bettor, uint256 amount, bytes challenges, uint256 answerBlockNumber);\r\n    constructor() {\r\n        owner = payable(msg.sender);\r\n    }\r\n\r\n    function getPot() public view returns (uint256 pot) {\r\n        return _pot;\r\n    }\r\n\r\n    // Bet\r\n    /**\r\n    @dev  .  0.005 ETH  ,  1 byte  .\r\n         distribute  .\r\n    @param challenges   1 byte \r\n    @return result ->     bool \r\n     */\r\n    function bet(bytes memory challenges) public payable returns (bool result) {\r\n        // check the proper ether sent\r\n        // msg.value   eth    .\r\n        require(msg.value == BET_AMOUNT, \"Not exact ETH\");\r\n        \r\n        // push bet to the queue\r\n        require(pushBet(challenges), \"Fail to push Bet Info\");\r\n        // emit event\r\n        emit BET(_tail - 1, msg.sender, msg.value, challenges, block.number + BET_BLOCK_INTERVAL);\r\n        return true;\r\n    }\r\n        // save the bet to the queue\r\n\r\n    // Distribute\r\n    //   + 3   pot   \r\n    // distribute   betting  .\r\n    /**\r\n    @dev      . \r\n      :  ,   :  ,   or    :   \r\n     */\r\n    function distribute() public {\r\n        // head 3 4 5 6 7 8 9 10 .. 259 tail ( 256 block  .)\r\n        uint256 cur;\r\n        uint256 transferAmount;\r\n        BetInfo memory b;\r\n        BlockStatus currentBlockStatus;\r\n        BettingResult currentBettingResult;\r\n\r\n        //      \r\n        // 1.   256    \r\n        // 2. +3       \r\n        for (cur = _head; cur < _tail; cur++) {\r\n            b = _bets[cur];\r\n            currentBlockStatus = getBlockStatus(b.answerBlockNumber);\r\n            // Cheackable : block.number > AnswerBlockNumber && block.number < BLOCK_LIMIT + AnswerBlockNumber => 1\r\n            \r\n            if (currentBlockStatus == BlockStatus.Checkable) {\r\n                bytes32 answerBlockHash = getAnswerBlockHash(b.answerBlockNumber);\r\n                // check the answer\r\n                currentBettingResult = isMatch(b.challenges, answerBlockHash);\r\n                // if win, bettor gets pot\r\n                if (currentBettingResult == BettingResult.Win) {\r\n                    // transfer pot\r\n                    transferAmount = transferAfterPayingFee(b.bettor, _pot + BET_AMOUNT);\r\n                    \r\n                    // pot = 0\r\n                    _pot = 0;\r\n\r\n                    // emit WIN\r\n                    emit WIN(cur, b.bettor, transferAmount, b.challenges, answerBlockHash[0], b.answerBlockNumber);\r\n                }\r\n                // if fail, bettor's money goes pot\r\n                if (currentBettingResult == BettingResult.Fail) {\r\n                    // pot = pot + BET_AMOUNT\r\n                    _pot += BET_AMOUNT;\r\n                    \r\n                    // emit FAIL\r\n                    emit FAIL(cur, b.bettor, 0, b.challenges, answerBlockHash[0], b.answerBlockNumber);\r\n                }\r\n                // if draw, refund bettor's money\r\n                if (currentBettingResult == BettingResult.Draw) {\r\n                    // transfer only BET_AMOUNT\r\n                    transferAmount = transferAfterPayingFee(b.bettor, BET_AMOUNT);\r\n                    \r\n                    // emit DRAW\r\n                    emit DRAW(cur, b.bettor, transferAmount, b.challenges, answerBlockHash[0], b.answerBlockNumber);\r\n                }\r\n            }\r\n            // Not Revealed : block.number <= AnswerBlockNumber => 2\r\n            //  block block hash     <=   .\r\n            if (currentBlockStatus == BlockStatus.NotRevealed) {\r\n                break;\r\n            }\r\n            // Block Limit Passed : block.number >= BLOCK_LIMIT + AnswerBlockNumber => 3\r\n            if (currentBlockStatus == BlockStatus.BlockLimitPassed) {\r\n                // refund\r\n                transferAmount = transferAfterPayingFee(b.bettor, BET_AMOUNT);\r\n                \r\n                // emit refund\r\n                emit REFUND(cur, b.bettor, transferAmount, b.challenges, b.answerBlockNumber);\r\n            }\r\n            popBet(cur);\r\n        }\r\n        _head = cur;\r\n    }\r\n\r\n    function transferAfterPayingFee(address payable addr, uint256 amount) internal returns (uint256) {\r\n        // uint256 fee = amount / 100;\r\n        uint256 fee = 0;\r\n        uint256 amountWithoutFee = amount - fee;\r\n\r\n        // transfer to addr\r\n        addr.transfer(amountWithoutFee);\r\n\r\n        // transfer to owner\r\n        owner.transfer(fee);\r\n\r\n        return amountWithoutFee;\r\n    }\r\n\r\n\r\n    function setAnswerForTest(bytes32 answer) public returns (bool result) {\r\n        require(msg.sender == owner, \"Only owner can set the answer for test mode\");\r\n        answerforTest = answer;\r\n        return true;\r\n    }\r\n\r\n    // if mode = false, block hash => answerforTest / if mode = true, block hash => blockhash(answerBlockNumber)\r\n    function getAnswerBlockHash(uint256 answerBlockNumber) internal view returns (bytes32 answer) {\r\n        return mode ? blockhash(answerBlockNumber) : answerforTest;\r\n    }\r\n\r\n    /**\r\n    @dev    .\r\n    @param challenges  \r\n    @param answer  \r\n    @return  \r\n     */\r\n    function isMatch(bytes memory challenges, bytes32 answer) public pure returns (BettingResult) {\r\n        // challenges 0xab\r\n        // answer 0xab......ff 32 bytes\r\n        bytes1 c1 = challenges[0];\r\n        bytes1 c2 = challenges[0];\r\n        bytes1 a1 = answer[0];\r\n        bytes1 a2 = answer[0];\r\n\r\n        // Get first number\r\n        c1 = c1 >> 4; // 0xab -> 0x0a\r\n        c1 = c1 << 4; // 0x0a -> 0xa0\r\n\r\n        a1 = a1 >> 4;\r\n        a1 = a1 << 4;\r\n\r\n        // Get second number\r\n        c2 = c2 << 4; // 0xab -> 0xb0\r\n        c2 = c2 >> 4; // 0xb0 -> 0x0b\r\n\r\n        a2 = a2 << 4;\r\n        a2 = a2 >> 4;\r\n\r\n        if (a1 == c1 && a2 == c2) {\r\n            return BettingResult.Win;\r\n        }\r\n        if (a1 == c1 || a1 == c2) {\r\n            return BettingResult.Draw;\r\n        }\r\n        return BettingResult.Fail;\r\n    }\r\n\r\n    function getBlockStatus(uint256 answerBlockNumber) internal view returns (BlockStatus) {\r\n        if (block.number > answerBlockNumber && block.number < BLOCK_LIMIT + answerBlockNumber) {\r\n            return BlockStatus.Checkable;\r\n        }\r\n        if (block.number <= answerBlockNumber) {\r\n            return BlockStatus.NotRevealed;\r\n        }\r\n        if (block.number >= BLOCK_LIMIT + answerBlockNumber) {\r\n            return BlockStatus.BlockLimitPassed;\r\n        }\r\n        return BlockStatus.BlockLimitPassed;\r\n    }\r\n\r\n    function getBetInfo(uint256 index) public view returns (uint256 answerBlockNumber, address bettor, bytes memory challenges) {\r\n        BetInfo memory b = _bets[index];\r\n        answerBlockNumber = b.answerBlockNumber;\r\n        bettor = b.bettor;\r\n        challenges = b.challenges;\r\n    }\r\n\r\n    //betting  _bets queue .\r\n    function pushBet(bytes memory challenges) internal returns (bool) {\r\n        BetInfo memory b;\r\n        b.bettor = payable(msg.sender); //20bytes\r\n        b.answerBlockNumber = block.number + BET_BLOCK_INTERVAL; //32bytes\r\n        b.challenges = challenges; // byte\r\n\r\n        _bets[_tail] = b;\r\n        _tail++; // 32byte  \r\n        return true;\r\n    }\r\n\r\n    function popBet(uint256 index) internal returns (bool) {\r\n        // map  delete   gas  .\r\n        delete _bets[index];\r\n        return true;\r\n    }\r\n}",
  "sourcePath": "C:\\Users\\JUNYUB\\Desktop\\\\dapp\\LotteryDapp\\contracts\\Lottery.sol",
  "compiler": {
    "name": "solc",
    "version": "0.8.10+commit.fc410830.Emscripten.clang"
  },
  "schemaVersion": "3.4.3",
  "updatedAt": "2021-12-11T07:12:59.287Z",
  "devdoc": {
    "kind": "dev",
    "methods": {
      "bet(bytes)": {
        "details": " .  0.005 ETH  ,  1 byte  .      distribute  .",
        "params": {
          "challenges": "  1 byte "
        },
        "returns": {
          "result": "->     bool "
        }
      },
      "distribute()": {
        "details": "     .    :  ,   :  ,   or    :   "
      },
      "isMatch(bytes,bytes32)": {
        "details": "   .",
        "params": {
          "answer": " ",
          "challenges": " "
        },
        "returns": {
          "_0": " "
        }
      }
    },
    "version": 1
  },
  "userdoc": {
    "kind": "user",
    "methods": {},
    "version": 1
  }
}